{
  "_format": "hh-sol-artifact-1",
  "contractName": "ERC20SimpleToken",
  "sourceName": "contracts/ERC20SimpleToken.sol",
  "abi": [
    {
      "inputs": [
        {
          "internalType": "string",
          "name": "_name",
          "type": "string"
        },
        {
          "internalType": "string",
          "name": "_symbol",
          "type": "string"
        },
        {
          "internalType": "uint8",
          "name": "_decimals",
          "type": "uint8"
        }
      ],
      "stateMutability": "nonpayable",
      "type": "constructor"
    },
    {
      "anonymous": false,
      "inputs": [
        {
          "indexed": true,
          "internalType": "address",
          "name": "owner",
          "type": "address"
        },
        {
          "indexed": true,
          "internalType": "address",
          "name": "spender",
          "type": "address"
        },
        {
          "indexed": false,
          "internalType": "uint256",
          "name": "value",
          "type": "uint256"
        }
      ],
      "name": "Approval",
      "type": "event"
    },
    {
      "anonymous": false,
      "inputs": [
        {
          "indexed": true,
          "internalType": "address",
          "name": "from",
          "type": "address"
        },
        {
          "indexed": true,
          "internalType": "address",
          "name": "to",
          "type": "address"
        },
        {
          "indexed": false,
          "internalType": "uint256",
          "name": "value",
          "type": "uint256"
        }
      ],
      "name": "Transfer",
      "type": "event"
    },
    {
      "inputs": [
        {
          "internalType": "address",
          "name": "",
          "type": "address"
        },
        {
          "internalType": "address",
          "name": "",
          "type": "address"
        }
      ],
      "name": "allowance",
      "outputs": [
        {
          "internalType": "uint256",
          "name": "",
          "type": "uint256"
        }
      ],
      "stateMutability": "view",
      "type": "function"
    },
    {
      "inputs": [
        {
          "internalType": "address",
          "name": "spender",
          "type": "address"
        },
        {
          "internalType": "uint256",
          "name": "amount",
          "type": "uint256"
        }
      ],
      "name": "approve",
      "outputs": [
        {
          "internalType": "bool",
          "name": "",
          "type": "bool"
        }
      ],
      "stateMutability": "nonpayable",
      "type": "function"
    },
    {
      "inputs": [
        {
          "internalType": "address",
          "name": "",
          "type": "address"
        }
      ],
      "name": "balanceOf",
      "outputs": [
        {
          "internalType": "uint256",
          "name": "",
          "type": "uint256"
        }
      ],
      "stateMutability": "view",
      "type": "function"
    },
    {
      "inputs": [
        {
          "internalType": "address",
          "name": "from",
          "type": "address"
        },
        {
          "internalType": "uint256",
          "name": "amount",
          "type": "uint256"
        }
      ],
      "name": "burn",
      "outputs": [],
      "stateMutability": "nonpayable",
      "type": "function"
    },
    {
      "inputs": [],
      "name": "decimals",
      "outputs": [
        {
          "internalType": "uint8",
          "name": "",
          "type": "uint8"
        }
      ],
      "stateMutability": "view",
      "type": "function"
    },
    {
      "inputs": [
        {
          "internalType": "string",
          "name": "_name",
          "type": "string"
        },
        {
          "internalType": "string",
          "name": "_symbol",
          "type": "string"
        }
      ],
      "name": "initialize",
      "outputs": [],
      "stateMutability": "nonpayable",
      "type": "function"
    },
    {
      "inputs": [
        {
          "internalType": "address",
          "name": "to",
          "type": "address"
        },
        {
          "internalType": "uint256",
          "name": "amount",
          "type": "uint256"
        }
      ],
      "name": "mint",
      "outputs": [],
      "stateMutability": "nonpayable",
      "type": "function"
    },
    {
      "inputs": [],
      "name": "name",
      "outputs": [
        {
          "internalType": "string",
          "name": "",
          "type": "string"
        }
      ],
      "stateMutability": "view",
      "type": "function"
    },
    {
      "inputs": [],
      "name": "symbol",
      "outputs": [
        {
          "internalType": "string",
          "name": "",
          "type": "string"
        }
      ],
      "stateMutability": "view",
      "type": "function"
    },
    {
      "inputs": [],
      "name": "totalSupply",
      "outputs": [
        {
          "internalType": "uint256",
          "name": "",
          "type": "uint256"
        }
      ],
      "stateMutability": "view",
      "type": "function"
    },
    {
      "inputs": [
        {
          "internalType": "address",
          "name": "recipient",
          "type": "address"
        },
        {
          "internalType": "uint256",
          "name": "amount",
          "type": "uint256"
        }
      ],
      "name": "transfer",
      "outputs": [
        {
          "internalType": "bool",
          "name": "",
          "type": "bool"
        }
      ],
      "stateMutability": "nonpayable",
      "type": "function"
    },
    {
      "inputs": [
        {
          "internalType": "address",
          "name": "sender",
          "type": "address"
        },
        {
          "internalType": "address",
          "name": "recipient",
          "type": "address"
        },
        {
          "internalType": "uint256",
          "name": "amount",
          "type": "uint256"
        }
      ],
      "name": "transferFrom",
      "outputs": [
        {
          "internalType": "bool",
          "name": "",
          "type": "bool"
        }
      ],
      "stateMutability": "nonpayable",
      "type": "function"
    }
  ],
  "bytecode": "0x60806040523480156200001157600080fd5b506040516200184d3803806200184d833981810160405281019062000037919062000291565b33600560016101000a81548173ffffffffffffffffffffffffffffffffffffffff021916908373ffffffffffffffffffffffffffffffffffffffff160217905550826003908162000089919062000576565b5081600490816200009b919062000576565b5080600560006101000a81548160ff021916908360ff1602179055505050506200065d565b6000604051905090565b600080fd5b600080fd5b600080fd5b600080fd5b6000601f19601f8301169050919050565b7f4e487b7100000000000000000000000000000000000000000000000000000000600052604160045260246000fd5b6200012982620000de565b810181811067ffffffffffffffff821117156200014b576200014a620000ef565b5b80604052505050565b600062000160620000c0565b90506200016e82826200011e565b919050565b600067ffffffffffffffff821115620001915762000190620000ef565b5b6200019c82620000de565b9050602081019050919050565b60005b83811015620001c9578082015181840152602081019050620001ac565b60008484015250505050565b6000620001ec620001e68462000173565b62000154565b9050828152602081018484840111156200020b576200020a620000d9565b5b62000218848285620001a9565b509392505050565b600082601f830112620002385762000237620000d4565b5b81516200024a848260208601620001d5565b91505092915050565b600060ff82169050919050565b6200026b8162000253565b81146200027757600080fd5b50565b6000815190506200028b8162000260565b92915050565b600080600060608486031215620002ad57620002ac620000ca565b5b600084015167ffffffffffffffff811115620002ce57620002cd620000cf565b5b620002dc8682870162000220565b935050602084015167ffffffffffffffff8111156200030057620002ff620000cf565b5b6200030e8682870162000220565b925050604062000321868287016200027a565b9150509250925092565b600081519050919050565b7f4e487b7100000000000000000000000000000000000000000000000000000000600052602260045260246000fd5b600060028204905060018216806200037e57607f821691505b60208210810362000394576200039362000336565b5b50919050565b60008190508160005260206000209050919050565b60006020601f8301049050919050565b600082821b905092915050565b600060088302620003fe7fffffffffffffffffffffffffffffffffffffffffffffffffffffffffffffffff82620003bf565b6200040a8683620003bf565b95508019841693508086168417925050509392505050565b6000819050919050565b6000819050919050565b600062000457620004516200044b8462000422565b6200042c565b62000422565b9050919050565b6000819050919050565b620004738362000436565b6200048b62000482826200045e565b848454620003cc565b825550505050565b600090565b620004a262000493565b620004af81848462000468565b505050565b5b81811015620004d757620004cb60008262000498565b600181019050620004b5565b5050565b601f8211156200052657620004f0816200039a565b620004fb84620003af565b810160208510156200050b578190505b620005236200051a85620003af565b830182620004b4565b50505b505050565b600082821c905092915050565b60006200054b600019846008026200052b565b1980831691505092915050565b600062000566838362000538565b9150826002028217905092915050565b62000581826200032b565b67ffffffffffffffff8111156200059d576200059c620000ef565b5b620005a9825462000365565b620005b6828285620004db565b600060209050601f831160018114620005ee5760008415620005d9578287015190505b620005e5858262000558565b86555062000655565b601f198416620005fe866200039a565b60005b82811015620006285784890151825560018201915060208501945060208101905062000601565b8683101562000648578489015162000644601f89168262000538565b8355505b6001600288020188555050505b505050505050565b6111e0806200066d6000396000f3fe608060405234801561001057600080fd5b50600436106100b45760003560e01c80634cd88b76116100715780634cd88b761461018f57806370a08231146101ab57806395d89b41146101db5780639dc29fac146101f9578063a9059cbb14610215578063dd62ed3e14610245576100b4565b806306fdde03146100b9578063095ea7b3146100d757806318160ddd1461010757806323b872dd14610125578063313ce5671461015557806340c10f1914610173575b600080fd5b6100c1610275565b6040516100ce9190610a27565b60405180910390f35b6100f160048036038101906100ec9190610af1565b610303565b6040516100fe9190610b4c565b60405180910390f35b61010f6103f5565b60405161011c9190610b76565b60405180910390f35b61013f600480360381019061013a9190610b91565b6103fb565b60405161014c9190610b4c565b60405180910390f35b61015d6105ac565b60405161016a9190610c00565b60405180910390f35b61018d60048036038101906101889190610af1565b6105bf565b005b6101a960048036038101906101a49190610d50565b6105cd565b005b6101c560048036038101906101c09190610dc8565b6105f1565b6040516101d29190610b76565b60405180910390f35b6101e3610609565b6040516101f09190610a27565b60405180910390f35b610213600480360381019061020e9190610af1565b610697565b005b61022f600480360381019061022a9190610af1565b6106a5565b60405161023c9190610b4c565b60405180910390f35b61025f600480360381019061025a9190610df5565b6107c2565b60405161026c9190610b76565b60405180910390f35b6003805461028290610e64565b80601f01602080910402602001604051908101604052809291908181526020018280546102ae90610e64565b80156102fb5780601f106102d0576101008083540402835291602001916102fb565b820191906000526020600020905b8154815290600101906020018083116102de57829003601f168201915b505050505081565b600081600260003373ffffffffffffffffffffffffffffffffffffffff1673ffffffffffffffffffffffffffffffffffffffff16815260200190815260200160002060008573ffffffffffffffffffffffffffffffffffffffff1673ffffffffffffffffffffffffffffffffffffffff168152602001908152602001600020819055508273ffffffffffffffffffffffffffffffffffffffff163373ffffffffffffffffffffffffffffffffffffffff167f8c5be1e5ebec7d5bd14f71427d1e84f3dd0314c0f7b2291e5b200ac8c7c3b925846040516103e39190610b76565b60405180910390a36001905092915050565b60005481565b600081600260008673ffffffffffffffffffffffffffffffffffffffff1673ffffffffffffffffffffffffffffffffffffffff16815260200190815260200160002060003373ffffffffffffffffffffffffffffffffffffffff1673ffffffffffffffffffffffffffffffffffffffff16815260200190815260200160002060008282546104899190610ec4565b9250508190555081600160008673ffffffffffffffffffffffffffffffffffffffff1673ffffffffffffffffffffffffffffffffffffffff16815260200190815260200160002060008282546104df9190610ec4565b9250508190555081600160008573ffffffffffffffffffffffffffffffffffffffff1673ffffffffffffffffffffffffffffffffffffffff16815260200190815260200160002060008282546105359190610ef8565b925050819055508273ffffffffffffffffffffffffffffffffffffffff168473ffffffffffffffffffffffffffffffffffffffff167fddf252ad1be2c89b69c2b068fc378daa952ba7f163c4a11628f55a4df523b3ef846040516105999190610b76565b60405180910390a3600190509392505050565b600560009054906101000a900460ff1681565b6105c982826107e7565b5050565b81600390816105dc91906110d8565b5080600490816105ec91906110d8565b505050565b60016020528060005260406000206000915090505481565b6004805461061690610e64565b80601f016020809104026020016040519081016040528092919081815260200182805461064290610e64565b801561068f5780601f106106645761010080835404028352916020019161068f565b820191906000526020600020905b81548152906001019060200180831161067257829003601f168201915b505050505081565b6106a182826108bf565b5050565b600081600160003373ffffffffffffffffffffffffffffffffffffffff1673ffffffffffffffffffffffffffffffffffffffff16815260200190815260200160002060008282546106f69190610ec4565b9250508190555081600160008573ffffffffffffffffffffffffffffffffffffffff1673ffffffffffffffffffffffffffffffffffffffff168152602001908152602001600020600082825461074c9190610ef8565b925050819055508273ffffffffffffffffffffffffffffffffffffffff163373ffffffffffffffffffffffffffffffffffffffff167fddf252ad1be2c89b69c2b068fc378daa952ba7f163c4a11628f55a4df523b3ef846040516107b09190610b76565b60405180910390a36001905092915050565b6002602052816000526040600020602052806000526040600020600091509150505481565b80600160008473ffffffffffffffffffffffffffffffffffffffff1673ffffffffffffffffffffffffffffffffffffffff16815260200190815260200160002060008282546108369190610ef8565b925050819055508060008082825461084e9190610ef8565b925050819055508173ffffffffffffffffffffffffffffffffffffffff16600073ffffffffffffffffffffffffffffffffffffffff167fddf252ad1be2c89b69c2b068fc378daa952ba7f163c4a11628f55a4df523b3ef836040516108b39190610b76565b60405180910390a35050565b80600160008473ffffffffffffffffffffffffffffffffffffffff1673ffffffffffffffffffffffffffffffffffffffff168152602001908152602001600020600082825461090e9190610ec4565b92505081905550806000808282546109269190610ec4565b92505081905550600073ffffffffffffffffffffffffffffffffffffffff168273ffffffffffffffffffffffffffffffffffffffff167fddf252ad1be2c89b69c2b068fc378daa952ba7f163c4a11628f55a4df523b3ef8360405161098b9190610b76565b60405180910390a35050565b600081519050919050565b600082825260208201905092915050565b60005b838110156109d15780820151818401526020810190506109b6565b60008484015250505050565b6000601f19601f8301169050919050565b60006109f982610997565b610a0381856109a2565b9350610a138185602086016109b3565b610a1c816109dd565b840191505092915050565b60006020820190508181036000830152610a4181846109ee565b905092915050565b6000604051905090565b600080fd5b600080fd5b600073ffffffffffffffffffffffffffffffffffffffff82169050919050565b6000610a8882610a5d565b9050919050565b610a9881610a7d565b8114610aa357600080fd5b50565b600081359050610ab581610a8f565b92915050565b6000819050919050565b610ace81610abb565b8114610ad957600080fd5b50565b600081359050610aeb81610ac5565b92915050565b60008060408385031215610b0857610b07610a53565b5b6000610b1685828601610aa6565b9250506020610b2785828601610adc565b9150509250929050565b60008115159050919050565b610b4681610b31565b82525050565b6000602082019050610b616000830184610b3d565b92915050565b610b7081610abb565b82525050565b6000602082019050610b8b6000830184610b67565b92915050565b600080600060608486031215610baa57610ba9610a53565b5b6000610bb886828701610aa6565b9350506020610bc986828701610aa6565b9250506040610bda86828701610adc565b9150509250925092565b600060ff82169050919050565b610bfa81610be4565b82525050565b6000602082019050610c156000830184610bf1565b92915050565b600080fd5b600080fd5b7f4e487b7100000000000000000000000000000000000000000000000000000000600052604160045260246000fd5b610c5d826109dd565b810181811067ffffffffffffffff82111715610c7c57610c7b610c25565b5b80604052505050565b6000610c8f610a49565b9050610c9b8282610c54565b919050565b600067ffffffffffffffff821115610cbb57610cba610c25565b5b610cc4826109dd565b9050602081019050919050565b82818337600083830152505050565b6000610cf3610cee84610ca0565b610c85565b905082815260208101848484011115610d0f57610d0e610c20565b5b610d1a848285610cd1565b509392505050565b600082601f830112610d3757610d36610c1b565b5b8135610d47848260208601610ce0565b91505092915050565b60008060408385031215610d6757610d66610a53565b5b600083013567ffffffffffffffff811115610d8557610d84610a58565b5b610d9185828601610d22565b925050602083013567ffffffffffffffff811115610db257610db1610a58565b5b610dbe85828601610d22565b9150509250929050565b600060208284031215610dde57610ddd610a53565b5b6000610dec84828501610aa6565b91505092915050565b60008060408385031215610e0c57610e0b610a53565b5b6000610e1a85828601610aa6565b9250506020610e2b85828601610aa6565b9150509250929050565b7f4e487b7100000000000000000000000000000000000000000000000000000000600052602260045260246000fd5b60006002820490506001821680610e7c57607f821691505b602082108103610e8f57610e8e610e35565b5b50919050565b7f4e487b7100000000000000000000000000000000000000000000000000000000600052601160045260246000fd5b6000610ecf82610abb565b9150610eda83610abb565b9250828203905081811115610ef257610ef1610e95565b5b92915050565b6000610f0382610abb565b9150610f0e83610abb565b9250828201905080821115610f2657610f25610e95565b5b92915050565b60008190508160005260206000209050919050565b60006020601f8301049050919050565b600082821b905092915050565b600060088302610f8e7fffffffffffffffffffffffffffffffffffffffffffffffffffffffffffffffff82610f51565b610f988683610f51565b95508019841693508086168417925050509392505050565b6000819050919050565b6000610fd5610fd0610fcb84610abb565b610fb0565b610abb565b9050919050565b6000819050919050565b610fef83610fba565b611003610ffb82610fdc565b848454610f5e565b825550505050565b600090565b61101861100b565b611023818484610fe6565b505050565b5b818110156110475761103c600082611010565b600181019050611029565b5050565b601f82111561108c5761105d81610f2c565b61106684610f41565b81016020851015611075578190505b61108961108185610f41565b830182611028565b50505b505050565b600082821c905092915050565b60006110af60001984600802611091565b1980831691505092915050565b60006110c8838361109e565b9150826002028217905092915050565b6110e182610997565b67ffffffffffffffff8111156110fa576110f9610c25565b5b6111048254610e64565b61110f82828561104b565b600060209050601f8311600181146111425760008415611130578287015190505b61113a85826110bc565b8655506111a2565b601f19841661115086610f2c565b60005b8281101561117857848901518255600182019150602085019450602081019050611153565b868310156111955784890151611191601f89168261109e565b8355505b6001600288020188555050505b50505050505056fea264697066735822122018574a0578ec10e89abb7227774530054864a705b95d18d4156e034b6f9bed7664736f6c63430008180033",
  "linkReferences": {},
  "deployedLinkReferences": {}
}