{
  "_format": "hh-sol-artifact-1",
  "contractName": "ERC1155SimpleToken",
  "sourceName": "contracts/ERC1155SimpleToken.sol",
  "abi": [
    {
      "inputs": [],
      "stateMutability": "nonpayable",
      "type": "constructor"
    },
    {
      "anonymous": false,
      "inputs": [
        {
          "indexed": true,
          "internalType": "address",
          "name": "owner",
          "type": "address"
        },
        {
          "indexed": true,
          "internalType": "address",
          "name": "operator",
          "type": "address"
        },
        {
          "indexed": false,
          "internalType": "bool",
          "name": "approved",
          "type": "bool"
        }
      ],
      "name": "ApprovalForAll",
      "type": "event"
    },
    {
      "anonymous": false,
      "inputs": [
        {
          "indexed": true,
          "internalType": "address",
          "name": "operator",
          "type": "address"
        },
        {
          "indexed": true,
          "internalType": "address",
          "name": "from",
          "type": "address"
        },
        {
          "indexed": true,
          "internalType": "address",
          "name": "to",
          "type": "address"
        },
        {
          "indexed": false,
          "internalType": "uint256[]",
          "name": "ids",
          "type": "uint256[]"
        },
        {
          "indexed": false,
          "internalType": "uint256[]",
          "name": "values",
          "type": "uint256[]"
        }
      ],
      "name": "TransferBatch",
      "type": "event"
    },
    {
      "anonymous": false,
      "inputs": [
        {
          "indexed": true,
          "internalType": "address",
          "name": "operator",
          "type": "address"
        },
        {
          "indexed": true,
          "internalType": "address",
          "name": "from",
          "type": "address"
        },
        {
          "indexed": true,
          "internalType": "address",
          "name": "to",
          "type": "address"
        },
        {
          "indexed": false,
          "internalType": "uint256",
          "name": "id",
          "type": "uint256"
        },
        {
          "indexed": false,
          "internalType": "uint256",
          "name": "value",
          "type": "uint256"
        }
      ],
      "name": "TransferSingle",
      "type": "event"
    },
    {
      "anonymous": false,
      "inputs": [
        {
          "indexed": false,
          "internalType": "string",
          "name": "value",
          "type": "string"
        },
        {
          "indexed": true,
          "internalType": "uint256",
          "name": "id",
          "type": "uint256"
        }
      ],
      "name": "URI",
      "type": "event"
    },
    {
      "inputs": [],
      "name": "GOLD",
      "outputs": [
        {
          "internalType": "uint256",
          "name": "",
          "type": "uint256"
        }
      ],
      "stateMutability": "view",
      "type": "function"
    },
    {
      "inputs": [],
      "name": "SHIELD",
      "outputs": [
        {
          "internalType": "uint256",
          "name": "",
          "type": "uint256"
        }
      ],
      "stateMutability": "view",
      "type": "function"
    },
    {
      "inputs": [],
      "name": "SILVER",
      "outputs": [
        {
          "internalType": "uint256",
          "name": "",
          "type": "uint256"
        }
      ],
      "stateMutability": "view",
      "type": "function"
    },
    {
      "inputs": [],
      "name": "SWORD",
      "outputs": [
        {
          "internalType": "uint256",
          "name": "",
          "type": "uint256"
        }
      ],
      "stateMutability": "view",
      "type": "function"
    },
    {
      "inputs": [],
      "name": "THORS_HAMMER",
      "outputs": [
        {
          "internalType": "uint256",
          "name": "",
          "type": "uint256"
        }
      ],
      "stateMutability": "view",
      "type": "function"
    },
    {
      "inputs": [
        {
          "internalType": "address",
          "name": "",
          "type": "address"
        },
        {
          "internalType": "uint256",
          "name": "",
          "type": "uint256"
        }
      ],
      "name": "balanceOf",
      "outputs": [
        {
          "internalType": "uint256",
          "name": "",
          "type": "uint256"
        }
      ],
      "stateMutability": "view",
      "type": "function"
    },
    {
      "inputs": [
        {
          "internalType": "address[]",
          "name": "owners",
          "type": "address[]"
        },
        {
          "internalType": "uint256[]",
          "name": "ids",
          "type": "uint256[]"
        }
      ],
      "name": "balanceOfBatch",
      "outputs": [
        {
          "internalType": "uint256[]",
          "name": "balances",
          "type": "uint256[]"
        }
      ],
      "stateMutability": "view",
      "type": "function"
    },
    {
      "inputs": [
        {
          "internalType": "uint256[]",
          "name": "ids",
          "type": "uint256[]"
        },
        {
          "internalType": "uint256[]",
          "name": "values",
          "type": "uint256[]"
        }
      ],
      "name": "batchBurn",
      "outputs": [],
      "stateMutability": "nonpayable",
      "type": "function"
    },
    {
      "inputs": [
        {
          "internalType": "uint256[]",
          "name": "ids",
          "type": "uint256[]"
        },
        {
          "internalType": "uint256[]",
          "name": "values",
          "type": "uint256[]"
        },
        {
          "internalType": "bytes",
          "name": "data",
          "type": "bytes"
        }
      ],
      "name": "batchMint",
      "outputs": [],
      "stateMutability": "nonpayable",
      "type": "function"
    },
    {
      "inputs": [
        {
          "internalType": "uint256",
          "name": "id",
          "type": "uint256"
        },
        {
          "internalType": "uint256",
          "name": "value",
          "type": "uint256"
        }
      ],
      "name": "burn",
      "outputs": [],
      "stateMutability": "nonpayable",
      "type": "function"
    },
    {
      "inputs": [
        {
          "internalType": "address",
          "name": "",
          "type": "address"
        },
        {
          "internalType": "address",
          "name": "",
          "type": "address"
        }
      ],
      "name": "isApprovedForAll",
      "outputs": [
        {
          "internalType": "bool",
          "name": "",
          "type": "bool"
        }
      ],
      "stateMutability": "view",
      "type": "function"
    },
    {
      "inputs": [
        {
          "internalType": "uint256",
          "name": "id",
          "type": "uint256"
        },
        {
          "internalType": "uint256",
          "name": "value",
          "type": "uint256"
        },
        {
          "internalType": "bytes",
          "name": "data",
          "type": "bytes"
        }
      ],
      "name": "mint",
      "outputs": [],
      "stateMutability": "nonpayable",
      "type": "function"
    },
    {
      "inputs": [
        {
          "internalType": "address",
          "name": "from",
          "type": "address"
        },
        {
          "internalType": "address",
          "name": "to",
          "type": "address"
        },
        {
          "internalType": "uint256[]",
          "name": "ids",
          "type": "uint256[]"
        },
        {
          "internalType": "uint256[]",
          "name": "values",
          "type": "uint256[]"
        },
        {
          "internalType": "bytes",
          "name": "data",
          "type": "bytes"
        }
      ],
      "name": "safeBatchTransferFrom",
      "outputs": [],
      "stateMutability": "nonpayable",
      "type": "function"
    },
    {
      "inputs": [
        {
          "internalType": "address",
          "name": "from",
          "type": "address"
        },
        {
          "internalType": "address",
          "name": "to",
          "type": "address"
        },
        {
          "internalType": "uint256",
          "name": "id",
          "type": "uint256"
        },
        {
          "internalType": "uint256",
          "name": "value",
          "type": "uint256"
        },
        {
          "internalType": "bytes",
          "name": "data",
          "type": "bytes"
        }
      ],
      "name": "safeTransferFrom",
      "outputs": [],
      "stateMutability": "nonpayable",
      "type": "function"
    },
    {
      "inputs": [
        {
          "internalType": "address",
          "name": "operator",
          "type": "address"
        },
        {
          "internalType": "bool",
          "name": "approved",
          "type": "bool"
        }
      ],
      "name": "setApprovalForAll",
      "outputs": [],
      "stateMutability": "nonpayable",
      "type": "function"
    },
    {
      "inputs": [
        {
          "internalType": "bytes4",
          "name": "interfaceId",
          "type": "bytes4"
        }
      ],
      "name": "supportsInterface",
      "outputs": [
        {
          "internalType": "bool",
          "name": "",
          "type": "bool"
        }
      ],
      "stateMutability": "pure",
      "type": "function"
    },
    {
      "inputs": [
        {
          "internalType": "uint256",
          "name": "id",
          "type": "uint256"
        }
      ],
      "name": "uri",
      "outputs": [
        {
          "internalType": "string",
          "name": "",
          "type": "string"
        }
      ],
      "stateMutability": "view",
      "type": "function"
    }
  ],
  "bytecode": "0x60806040523480156200001157600080fd5b506200003e336000670de0b6b3a764000060405180602001604052806000815250620000e960201b60201c565b6200006e3360016b033b2e3c9fd0803ce800000060405180602001604052806000815250620000e960201b60201c565b62000093336002600160405180602001604052806000815250620000e960201b60201c565b620000bb336003633b9aca0060405180602001604052806000815250620000e960201b60201c565b620000e3336004633b9aca0060405180602001604052806000815250620000e960201b60201c565b620006fd565b600073ffffffffffffffffffffffffffffffffffffffff168473ffffffffffffffffffffffffffffffffffffffff16036200015b576040517f08c379a00000000000000000000000000000000000000000000000000000000081526004016200015290620003e0565b60405180910390fd5b816000808673ffffffffffffffffffffffffffffffffffffffff1673ffffffffffffffffffffffffffffffffffffffff16815260200190815260200160002060008581526020019081526020016000206000828254620001bc91906200043b565b925050819055508373ffffffffffffffffffffffffffffffffffffffff16600073ffffffffffffffffffffffffffffffffffffffff163373ffffffffffffffffffffffffffffffffffffffff167fc3d58168c5ae7397731d063d5bbf3d657854427343f4c083240f7aacaa2d0f6286866040516200023c92919062000487565b60405180910390a460008473ffffffffffffffffffffffffffffffffffffffff163b1115620003795763f23a6e6160e01b7bffffffffffffffffffffffffffffffffffffffffffffffffffffffff19168473ffffffffffffffffffffffffffffffffffffffff1663f23a6e613360008787876040518663ffffffff1660e01b8152600401620002d095949392919062000593565b6020604051808303816000875af1158015620002f0573d6000803e3d6000fd5b505050506040513d601f19601f8201168201806040525081019062000316919062000659565b7bffffffffffffffffffffffffffffffffffffffffffffffffffffffff19161462000378576040517f08c379a00000000000000000000000000000000000000000000000000000000081526004016200036f90620006db565b60405180910390fd5b5b50505050565b600082825260208201905092915050565b7f746f203d20302061646472657373000000000000000000000000000000000000600082015250565b6000620003c8600e836200037f565b9150620003d58262000390565b602082019050919050565b60006020820190508181036000830152620003fb81620003b9565b9050919050565b6000819050919050565b7f4e487b7100000000000000000000000000000000000000000000000000000000600052601160045260246000fd5b6000620004488262000402565b9150620004558362000402565b925082820190508082111562000470576200046f6200040c565b5b92915050565b620004818162000402565b82525050565b60006040820190506200049e600083018562000476565b620004ad602083018462000476565b9392505050565b600073ffffffffffffffffffffffffffffffffffffffff82169050919050565b6000620004e182620004b4565b9050919050565b620004f381620004d4565b82525050565b600081519050919050565b600082825260208201905092915050565b60005b838110156200053557808201518184015260208101905062000518565b60008484015250505050565b6000601f19601f8301169050919050565b60006200055f82620004f9565b6200056b818562000504565b93506200057d81856020860162000515565b620005888162000541565b840191505092915050565b600060a082019050620005aa6000830188620004e8565b620005b96020830187620004e8565b620005c8604083018662000476565b620005d7606083018562000476565b8181036080830152620005eb818462000552565b90509695505050505050565b600080fd5b60007fffffffff0000000000000000000000000000000000000000000000000000000082169050919050565b6200063381620005fc565b81146200063f57600080fd5b50565b600081519050620006538162000628565b92915050565b600060208284031215620006725762000671620005f7565b5b6000620006828482850162000642565b91505092915050565b7f756e73616665207472616e736665720000000000000000000000000000000000600082015250565b6000620006c3600f836200037f565b9150620006d0826200068b565b602082019050919050565b60006020820190508181036000830152620006f681620006b4565b9050919050565b612984806200070d6000396000f3fe608060405234801561001057600080fd5b506004361061010a5760003560e01c80634e1273f4116100a2578063cf04192e11610071578063cf04192e146102b5578063d562e204146102d1578063e3e55f08146102ef578063e985e9c51461030d578063f242432a1461033d5761010a565b80634e1273f41461022f5780635b2725ed1461025f578063a22cb4651461027d578063b390c0ab146102995761010a565b806313dc989f116100de57806313dc989f146101bb57806320ec271b146101d95780632eb2c2d6146101f55780633e4bee38146102115761010a565b8062fdd58e1461010f57806301ffc9a71461013f57806308dc9f421461016f5780630e89341c1461018b575b600080fd5b61012960048036038101906101249190611962565b610359565b60405161013691906119b1565b60405180910390f35b61015960048036038101906101549190611a24565b61037e565b6040516101669190611a6c565b60405180910390f35b61018960048036038101906101849190611bcd565b610410565b005b6101a560048036038101906101a09190611c3c565b610421565b6040516101b29190611ce8565b60405180910390f35b6101c3610428565b6040516101d091906119b1565b60405180910390f35b6101f360048036038101906101ee9190611d6a565b61042d565b005b61020f600480360381019061020a9190611e41565b610440565b005b6102196108ff565b60405161022691906119b1565b60405180910390f35b61024960048036038101906102449190611f73565b610904565b60405161025691906120b2565b60405180910390f35b610267610a6f565b60405161027491906119b1565b60405180910390f35b61029760048036038101906102929190612100565b610a74565b005b6102b360048036038101906102ae9190612140565b610b71565b005b6102cf60048036038101906102ca9190612180565b610b80565b005b6102d9610b97565b6040516102e691906119b1565b60405180910390f35b6102f7610b9c565b60405161030491906119b1565b60405180910390f35b61032760048036038101906103229190612234565b610ba1565b6040516103349190611a6c565b60405180910390f35b61035760048036038101906103529190612274565b610bd0565b005b6000602052816000526040600020602052806000526040600020600091509150505481565b60006301ffc9a760e01b827bffffffffffffffffffffffffffffffffffffffffffffffffffffffff191614806103d9575063d9b67a2660e01b827bffffffffffffffffffffffffffffffffffffffffffffffffffffffff1916145b806104095750630e89341c60e01b827bffffffffffffffffffffffffffffffffffffffffffffffffffffffff1916145b9050919050565b61041c33848484610fbd565b505050565b6060919050565b600381565b61043a3385858585611243565b50505050565b8773ffffffffffffffffffffffffffffffffffffffff163373ffffffffffffffffffffffffffffffffffffffff1614806105005750600160008973ffffffffffffffffffffffffffffffffffffffff1673ffffffffffffffffffffffffffffffffffffffff16815260200190815260200160002060003373ffffffffffffffffffffffffffffffffffffffff1673ffffffffffffffffffffffffffffffffffffffff16815260200190815260200160002060009054906101000a900460ff165b61053f576040517f08c379a00000000000000000000000000000000000000000000000000000000081526004016105369061235a565b60405180910390fd5b600073ffffffffffffffffffffffffffffffffffffffff168773ffffffffffffffffffffffffffffffffffffffff16036105ae576040517f08c379a00000000000000000000000000000000000000000000000000000000081526004016105a5906123c6565b60405180910390fd5b8383905086869050146105f6576040517f08c379a00000000000000000000000000000000000000000000000000000000081526004016105ed90612432565b60405180910390fd5b60005b868690508110156107415784848281811061061757610616612452565b5b905060200201356000808b73ffffffffffffffffffffffffffffffffffffffff1673ffffffffffffffffffffffffffffffffffffffff168152602001908152602001600020600089898581811061067157610670612452565b5b905060200201358152602001908152602001600020600082825461069591906124b0565b925050819055508484828181106106af576106ae612452565b5b905060200201356000808a73ffffffffffffffffffffffffffffffffffffffff1673ffffffffffffffffffffffffffffffffffffffff168152602001908152602001600020600089898581811061070957610708612452565b5b905060200201358152602001908152602001600020600082825461072d91906124e4565b9250508190555080806001019150506105f9565b508673ffffffffffffffffffffffffffffffffffffffff168873ffffffffffffffffffffffffffffffffffffffff163373ffffffffffffffffffffffffffffffffffffffff167f4a39dc06d4c0dbc64b70af90fd698a233a518aa5d07e595d983b8c0526c8f7fb898989896040516107bc9493929190612582565b60405180910390a460008773ffffffffffffffffffffffffffffffffffffffff163b11156108f55763bc197c8160e01b7bffffffffffffffffffffffffffffffffffffffffffffffffffffffff19168773ffffffffffffffffffffffffffffffffffffffff1663bc197c81338b8a8a8a8a8a8a6040518963ffffffff1660e01b815260040161085298979695949392919061260a565b6020604051808303816000875af1158015610871573d6000803e3d6000fd5b505050506040513d601f19601f82011682018060405250810190610895919061268d565b7bffffffffffffffffffffffffffffffffffffffffffffffffffffffff1916146108f4576040517f08c379a00000000000000000000000000000000000000000000000000000000081526004016108eb90612706565b60405180910390fd5b5b5050505050505050565b600081565b606082829050858590501461094e576040517f08c379a000000000000000000000000000000000000000000000000000000000815260040161094590612772565b60405180910390fd5b8484905067ffffffffffffffff81111561096b5761096a611aa2565b5b6040519080825280602002602001820160405280156109995781602001602082028036833780820191505090505b50905060005b85859050811015610a66576000808787848181106109c0576109bf612452565b5b90506020020160208101906109d59190612792565b73ffffffffffffffffffffffffffffffffffffffff1673ffffffffffffffffffffffffffffffffffffffff1681526020019081526020016000206000858584818110610a2457610a23612452565b5b90506020020135815260200190815260200160002054828281518110610a4d57610a4c612452565b5b602002602001018181525050808060010191505061099f565b50949350505050565b600481565b80600160003373ffffffffffffffffffffffffffffffffffffffff1673ffffffffffffffffffffffffffffffffffffffff16815260200190815260200160002060008473ffffffffffffffffffffffffffffffffffffffff1673ffffffffffffffffffffffffffffffffffffffff16815260200190815260200160002060006101000a81548160ff0219169083151502179055508173ffffffffffffffffffffffffffffffffffffffff163373ffffffffffffffffffffffffffffffffffffffff167f17307eab39ab6107e8899845ad3d59bd9653f200f220920489ca2b5937696c3183604051610b659190611a6c565b60405180910390a35050565b610b7c338383611438565b5050565b610b8f33878787878787611591565b505050505050565b600281565b600181565b60016020528160005260406000206020528060005260406000206000915091509054906101000a900460ff1681565b8573ffffffffffffffffffffffffffffffffffffffff163373ffffffffffffffffffffffffffffffffffffffff161480610c905750600160008773ffffffffffffffffffffffffffffffffffffffff1673ffffffffffffffffffffffffffffffffffffffff16815260200190815260200160002060003373ffffffffffffffffffffffffffffffffffffffff1673ffffffffffffffffffffffffffffffffffffffff16815260200190815260200160002060009054906101000a900460ff165b610ccf576040517f08c379a0000000000000000000000000000000000000000000000000000000008152600401610cc69061235a565b60405180910390fd5b600073ffffffffffffffffffffffffffffffffffffffff168573ffffffffffffffffffffffffffffffffffffffff1603610d3e576040517f08c379a0000000000000000000000000000000000000000000000000000000008152600401610d35906123c6565b60405180910390fd5b826000808873ffffffffffffffffffffffffffffffffffffffff1673ffffffffffffffffffffffffffffffffffffffff16815260200190815260200160002060008681526020019081526020016000206000828254610d9d91906124b0565b92505081905550826000808773ffffffffffffffffffffffffffffffffffffffff1673ffffffffffffffffffffffffffffffffffffffff16815260200190815260200160002060008681526020019081526020016000206000828254610e0391906124e4565b925050819055508473ffffffffffffffffffffffffffffffffffffffff168673ffffffffffffffffffffffffffffffffffffffff163373ffffffffffffffffffffffffffffffffffffffff167fc3d58168c5ae7397731d063d5bbf3d657854427343f4c083240f7aacaa2d0f628787604051610e809291906127bf565b60405180910390a460008573ffffffffffffffffffffffffffffffffffffffff163b1115610fb55763f23a6e6160e01b7bffffffffffffffffffffffffffffffffffffffffffffffffffffffff19168573ffffffffffffffffffffffffffffffffffffffff1663f23a6e613389888888886040518763ffffffff1660e01b8152600401610f12969594939291906127e8565b6020604051808303816000875af1158015610f31573d6000803e3d6000fd5b505050506040513d601f19601f82011682018060405250810190610f55919061268d565b7bffffffffffffffffffffffffffffffffffffffffffffffffffffffff191614610fb4576040517f08c379a0000000000000000000000000000000000000000000000000000000008152600401610fab90612706565b60405180910390fd5b5b505050505050565b600073ffffffffffffffffffffffffffffffffffffffff168473ffffffffffffffffffffffffffffffffffffffff160361102c576040517f08c379a0000000000000000000000000000000000000000000000000000000008152600401611023906123c6565b60405180910390fd5b816000808673ffffffffffffffffffffffffffffffffffffffff1673ffffffffffffffffffffffffffffffffffffffff1681526020019081526020016000206000858152602001908152602001600020600082825461108b91906124e4565b925050819055508373ffffffffffffffffffffffffffffffffffffffff16600073ffffffffffffffffffffffffffffffffffffffff163373ffffffffffffffffffffffffffffffffffffffff167fc3d58168c5ae7397731d063d5bbf3d657854427343f4c083240f7aacaa2d0f6286866040516111099291906127bf565b60405180910390a460008473ffffffffffffffffffffffffffffffffffffffff163b111561123d5763f23a6e6160e01b7bffffffffffffffffffffffffffffffffffffffffffffffffffffffff19168473ffffffffffffffffffffffffffffffffffffffff1663f23a6e613360008787876040518663ffffffff1660e01b815260040161119a959493929190612888565b6020604051808303816000875af11580156111b9573d6000803e3d6000fd5b505050506040513d601f19601f820116820180604052508101906111dd919061268d565b7bffffffffffffffffffffffffffffffffffffffffffffffffffffffff19161461123c576040517f08c379a000000000000000000000000000000000000000000000000000000000815260040161123390612706565b60405180910390fd5b5b50505050565b600073ffffffffffffffffffffffffffffffffffffffff168573ffffffffffffffffffffffffffffffffffffffff16036112b2576040517f08c379a00000000000000000000000000000000000000000000000000000000081526004016112a99061292e565b60405180910390fd5b8181905084849050146112fa576040517f08c379a00000000000000000000000000000000000000000000000000000000081526004016112f190612432565b60405180910390fd5b60005b848490508110156113ad5782828281811061131b5761131a612452565b5b905060200201356000808873ffffffffffffffffffffffffffffffffffffffff1673ffffffffffffffffffffffffffffffffffffffff168152602001908152602001600020600087878581811061137557611374612452565b5b905060200201358152602001908152602001600020600082825461139991906124b0565b9250508190555080806001019150506112fd565b50600073ffffffffffffffffffffffffffffffffffffffff168573ffffffffffffffffffffffffffffffffffffffff163373ffffffffffffffffffffffffffffffffffffffff167f4a39dc06d4c0dbc64b70af90fd698a233a518aa5d07e595d983b8c0526c8f7fb878787876040516114299493929190612582565b60405180910390a45050505050565b600073ffffffffffffffffffffffffffffffffffffffff168373ffffffffffffffffffffffffffffffffffffffff16036114a7576040517f08c379a000000000000000000000000000000000000000000000000000000000815260040161149e9061292e565b60405180910390fd5b806000808573ffffffffffffffffffffffffffffffffffffffff1673ffffffffffffffffffffffffffffffffffffffff1681526020019081526020016000206000848152602001908152602001600020600082825461150691906124b0565b92505081905550600073ffffffffffffffffffffffffffffffffffffffff168373ffffffffffffffffffffffffffffffffffffffff163373ffffffffffffffffffffffffffffffffffffffff167fc3d58168c5ae7397731d063d5bbf3d657854427343f4c083240f7aacaa2d0f6285856040516115849291906127bf565b60405180910390a4505050565b600073ffffffffffffffffffffffffffffffffffffffff168773ffffffffffffffffffffffffffffffffffffffff1603611600576040517f08c379a00000000000000000000000000000000000000000000000000000000081526004016115f7906123c6565b60405180910390fd5b838390508686905014611648576040517f08c379a000000000000000000000000000000000000000000000000000000000815260040161163f90612432565b60405180910390fd5b60005b868690508110156116fb5784848281811061166957611668612452565b5b905060200201356000808a73ffffffffffffffffffffffffffffffffffffffff1673ffffffffffffffffffffffffffffffffffffffff16815260200190815260200160002060008989858181106116c3576116c2612452565b5b90506020020135815260200190815260200160002060008282546116e791906124e4565b92505081905550808060010191505061164b565b508673ffffffffffffffffffffffffffffffffffffffff16600073ffffffffffffffffffffffffffffffffffffffff163373ffffffffffffffffffffffffffffffffffffffff167f4a39dc06d4c0dbc64b70af90fd698a233a518aa5d07e595d983b8c0526c8f7fb898989896040516117779493929190612582565b60405180910390a460008773ffffffffffffffffffffffffffffffffffffffff163b11156118b15763bc197c8160e01b7bffffffffffffffffffffffffffffffffffffffffffffffffffffffff19168773ffffffffffffffffffffffffffffffffffffffff1663bc197c813360008a8a8a8a8a8a6040518963ffffffff1660e01b815260040161180e98979695949392919061260a565b6020604051808303816000875af115801561182d573d6000803e3d6000fd5b505050506040513d601f19601f82011682018060405250810190611851919061268d565b7bffffffffffffffffffffffffffffffffffffffffffffffffffffffff1916146118b0576040517f08c379a00000000000000000000000000000000000000000000000000000000081526004016118a790612706565b60405180910390fd5b5b50505050505050565b6000604051905090565b600080fd5b600080fd5b600073ffffffffffffffffffffffffffffffffffffffff82169050919050565b60006118f9826118ce565b9050919050565b611909816118ee565b811461191457600080fd5b50565b60008135905061192681611900565b92915050565b6000819050919050565b61193f8161192c565b811461194a57600080fd5b50565b60008135905061195c81611936565b92915050565b60008060408385031215611979576119786118c4565b5b600061198785828601611917565b92505060206119988582860161194d565b9150509250929050565b6119ab8161192c565b82525050565b60006020820190506119c660008301846119a2565b92915050565b60007fffffffff0000000000000000000000000000000000000000000000000000000082169050919050565b611a01816119cc565b8114611a0c57600080fd5b50565b600081359050611a1e816119f8565b92915050565b600060208284031215611a3a57611a396118c4565b5b6000611a4884828501611a0f565b91505092915050565b60008115159050919050565b611a6681611a51565b82525050565b6000602082019050611a816000830184611a5d565b92915050565b600080fd5b600080fd5b6000601f19601f8301169050919050565b7f4e487b7100000000000000000000000000000000000000000000000000000000600052604160045260246000fd5b611ada82611a91565b810181811067ffffffffffffffff82111715611af957611af8611aa2565b5b80604052505050565b6000611b0c6118ba565b9050611b188282611ad1565b919050565b600067ffffffffffffffff821115611b3857611b37611aa2565b5b611b4182611a91565b9050602081019050919050565b82818337600083830152505050565b6000611b70611b6b84611b1d565b611b02565b905082815260208101848484011115611b8c57611b8b611a8c565b5b611b97848285611b4e565b509392505050565b600082601f830112611bb457611bb3611a87565b5b8135611bc4848260208601611b5d565b91505092915050565b600080600060608486031215611be657611be56118c4565b5b6000611bf48682870161194d565b9350506020611c058682870161194d565b925050604084013567ffffffffffffffff811115611c2657611c256118c9565b5b611c3286828701611b9f565b9150509250925092565b600060208284031215611c5257611c516118c4565b5b6000611c608482850161194d565b91505092915050565b600081519050919050565b600082825260208201905092915050565b60005b83811015611ca3578082015181840152602081019050611c88565b60008484015250505050565b6000611cba82611c69565b611cc48185611c74565b9350611cd4818560208601611c85565b611cdd81611a91565b840191505092915050565b60006020820190508181036000830152611d028184611caf565b905092915050565b600080fd5b600080fd5b60008083601f840112611d2a57611d29611a87565b5b8235905067ffffffffffffffff811115611d4757611d46611d0a565b5b602083019150836020820283011115611d6357611d62611d0f565b5b9250929050565b60008060008060408587031215611d8457611d836118c4565b5b600085013567ffffffffffffffff811115611da257611da16118c9565b5b611dae87828801611d14565b9450945050602085013567ffffffffffffffff811115611dd157611dd06118c9565b5b611ddd87828801611d14565b925092505092959194509250565b60008083601f840112611e0157611e00611a87565b5b8235905067ffffffffffffffff811115611e1e57611e1d611d0a565b5b602083019150836001820283011115611e3a57611e39611d0f565b5b9250929050565b60008060008060008060008060a0898b031215611e6157611e606118c4565b5b6000611e6f8b828c01611917565b9850506020611e808b828c01611917565b975050604089013567ffffffffffffffff811115611ea157611ea06118c9565b5b611ead8b828c01611d14565b9650965050606089013567ffffffffffffffff811115611ed057611ecf6118c9565b5b611edc8b828c01611d14565b9450945050608089013567ffffffffffffffff811115611eff57611efe6118c9565b5b611f0b8b828c01611deb565b92509250509295985092959890939650565b60008083601f840112611f3357611f32611a87565b5b8235905067ffffffffffffffff811115611f5057611f4f611d0a565b5b602083019150836020820283011115611f6c57611f6b611d0f565b5b9250929050565b60008060008060408587031215611f8d57611f8c6118c4565b5b600085013567ffffffffffffffff811115611fab57611faa6118c9565b5b611fb787828801611f1d565b9450945050602085013567ffffffffffffffff811115611fda57611fd96118c9565b5b611fe687828801611d14565b925092505092959194509250565b600081519050919050565b600082825260208201905092915050565b6000819050602082019050919050565b6120298161192c565b82525050565b600061203b8383612020565b60208301905092915050565b6000602082019050919050565b600061205f82611ff4565b6120698185611fff565b935061207483612010565b8060005b838110156120a557815161208c888261202f565b975061209783612047565b925050600181019050612078565b5085935050505092915050565b600060208201905081810360008301526120cc8184612054565b905092915050565b6120dd81611a51565b81146120e857600080fd5b50565b6000813590506120fa816120d4565b92915050565b60008060408385031215612117576121166118c4565b5b600061212585828601611917565b9250506020612136858286016120eb565b9150509250929050565b60008060408385031215612157576121566118c4565b5b60006121658582860161194d565b92505060206121768582860161194d565b9150509250929050565b6000806000806000806060878903121561219d5761219c6118c4565b5b600087013567ffffffffffffffff8111156121bb576121ba6118c9565b5b6121c789828a01611d14565b9650965050602087013567ffffffffffffffff8111156121ea576121e96118c9565b5b6121f689828a01611d14565b9450945050604087013567ffffffffffffffff811115612219576122186118c9565b5b61222589828a01611deb565b92509250509295509295509295565b6000806040838503121561224b5761224a6118c4565b5b600061225985828601611917565b925050602061226a85828601611917565b9150509250929050565b60008060008060008060a08789031215612291576122906118c4565b5b600061229f89828a01611917565b96505060206122b089828a01611917565b95505060406122c189828a0161194d565b94505060606122d289828a0161194d565b935050608087013567ffffffffffffffff8111156122f3576122f26118c9565b5b6122ff89828a01611deb565b92509250509295509295509295565b7f6e6f7420617070726f7665640000000000000000000000000000000000000000600082015250565b6000612344600c83611c74565b915061234f8261230e565b602082019050919050565b6000602082019050818103600083015261237381612337565b9050919050565b7f746f203d20302061646472657373000000000000000000000000000000000000600082015250565b60006123b0600e83611c74565b91506123bb8261237a565b602082019050919050565b600060208201905081810360008301526123df816123a3565b9050919050565b7f696473206c656e67746820213d2076616c756573206c656e6774680000000000600082015250565b600061241c601b83611c74565b9150612427826123e6565b602082019050919050565b6000602082019050818103600083015261244b8161240f565b9050919050565b7f4e487b7100000000000000000000000000000000000000000000000000000000600052603260045260246000fd5b7f4e487b7100000000000000000000000000000000000000000000000000000000600052601160045260246000fd5b60006124bb8261192c565b91506124c68361192c565b92508282039050818111156124de576124dd612481565b5b92915050565b60006124ef8261192c565b91506124fa8361192c565b925082820190508082111561251257612511612481565b5b92915050565b600080fd5b82818337505050565b60006125328385611fff565b93507f07ffffffffffffffffffffffffffffffffffffffffffffffffffffffffffffff83111561256557612564612518565b5b60208302925061257683858461251d565b82840190509392505050565b6000604082019050818103600083015261259d818688612526565b905081810360208301526125b2818486612526565b905095945050505050565b6125c6816118ee565b82525050565b600082825260208201905092915050565b60006125e983856125cc565b93506125f6838584611b4e565b6125ff83611a91565b840190509392505050565b600060a08201905061261f600083018b6125bd565b61262c602083018a6125bd565b818103604083015261263f81888a612526565b90508181036060830152612654818688612526565b905081810360808301526126698184866125dd565b90509998505050505050505050565b600081519050612687816119f8565b92915050565b6000602082840312156126a3576126a26118c4565b5b60006126b184828501612678565b91505092915050565b7f756e73616665207472616e736665720000000000000000000000000000000000600082015250565b60006126f0600f83611c74565b91506126fb826126ba565b602082019050919050565b6000602082019050818103600083015261271f816126e3565b9050919050565b7f6f776e657273206c656e67746820213d20696473206c656e6774680000000000600082015250565b600061275c601b83611c74565b915061276782612726565b602082019050919050565b6000602082019050818103600083015261278b8161274f565b9050919050565b6000602082840312156127a8576127a76118c4565b5b60006127b684828501611917565b91505092915050565b60006040820190506127d460008301856119a2565b6127e160208301846119a2565b9392505050565b600060a0820190506127fd60008301896125bd565b61280a60208301886125bd565b61281760408301876119a2565b61282460608301866119a2565b81810360808301526128378184866125dd565b9050979650505050505050565b600081519050919050565b600061285a82612844565b61286481856125cc565b9350612874818560208601611c85565b61287d81611a91565b840191505092915050565b600060a08201905061289d60008301886125bd565b6128aa60208301876125bd565b6128b760408301866119a2565b6128c460608301856119a2565b81810360808301526128d6818461284f565b90509695505050505050565b7f66726f6d203d2030206164647265737300000000000000000000000000000000600082015250565b6000612918601083611c74565b9150612923826128e2565b602082019050919050565b600060208201905081810360008301526129478161290b565b905091905056fea264697066735822122025e358ba36abe9ab36414c3f3a6549e580da899e13bc75af0b652c7e3343d36064736f6c63430008180033",
  "linkReferences": {},
  "deployedLinkReferences": {}
}