{
  "_format": "hh-sol-artifact-1",
  "contractName": "CloneFactoryERC20",
  "sourceName": "contracts/CloneFactoryERC20.sol",
  "abi": [
    {
      "inputs": [
        {
          "internalType": "address",
          "name": "_tokenImplementation",
          "type": "address"
        }
      ],
      "stateMutability": "nonpayable",
      "type": "constructor"
    },
    {
      "inputs": [],
      "name": "ERC1167FailedCreateClone",
      "type": "error"
    },
    {
      "anonymous": false,
      "inputs": [
        {
          "indexed": true,
          "internalType": "string",
          "name": "name",
          "type": "string"
        },
        {
          "indexed": true,
          "internalType": "string",
          "name": "symbol",
          "type": "string"
        },
        {
          "indexed": false,
          "internalType": "address",
          "name": "clone",
          "type": "address"
        }
      ],
      "name": "CloneCreated",
      "type": "event"
    },
    {
      "inputs": [
        {
          "internalType": "address",
          "name": "",
          "type": "address"
        },
        {
          "internalType": "address",
          "name": "",
          "type": "address"
        },
        {
          "internalType": "uint256[]",
          "name": "",
          "type": "uint256[]"
        },
        {
          "internalType": "uint256[]",
          "name": "",
          "type": "uint256[]"
        },
        {
          "internalType": "bytes",
          "name": "",
          "type": "bytes"
        }
      ],
      "name": "onERC1155BatchReceived",
      "outputs": [
        {
          "internalType": "bytes4",
          "name": "",
          "type": "bytes4"
        }
      ],
      "stateMutability": "nonpayable",
      "type": "function"
    },
    {
      "inputs": [
        {
          "internalType": "address",
          "name": "",
          "type": "address"
        },
        {
          "internalType": "address",
          "name": "",
          "type": "address"
        },
        {
          "internalType": "uint256",
          "name": "",
          "type": "uint256"
        },
        {
          "internalType": "uint256",
          "name": "",
          "type": "uint256"
        },
        {
          "internalType": "bytes",
          "name": "",
          "type": "bytes"
        }
      ],
      "name": "onERC1155Received",
      "outputs": [
        {
          "internalType": "bytes4",
          "name": "",
          "type": "bytes4"
        }
      ],
      "stateMutability": "nonpayable",
      "type": "function"
    },
    {
      "inputs": [
        {
          "internalType": "bytes4",
          "name": "interfaceId",
          "type": "bytes4"
        }
      ],
      "name": "supportsInterface",
      "outputs": [
        {
          "internalType": "bool",
          "name": "",
          "type": "bool"
        }
      ],
      "stateMutability": "view",
      "type": "function"
    },
    {
      "inputs": [
        {
          "internalType": "address",
          "name": "MultyToken",
          "type": "address"
        },
        {
          "internalType": "uint256",
          "name": "tokenId",
          "type": "uint256"
        },
        {
          "internalType": "uint256",
          "name": "amountDesired",
          "type": "uint256"
        },
        {
          "internalType": "string",
          "name": "name",
          "type": "string"
        },
        {
          "internalType": "string",
          "name": "symbol",
          "type": "string"
        }
      ],
      "name": "wrap1155Token",
      "outputs": [
        {
          "internalType": "address",
          "name": "wrapedToken",
          "type": "address"
        }
      ],
      "stateMutability": "nonpayable",
      "type": "function"
    }
  ],
  "bytecode": "0x60a06040523480156200001157600080fd5b5060405162001119380380620011198339818101604052810190620000379190620000dc565b8073ffffffffffffffffffffffffffffffffffffffff1660808173ffffffffffffffffffffffffffffffffffffffff1681525050506200010e565b600080fd5b600073ffffffffffffffffffffffffffffffffffffffff82169050919050565b6000620000a48262000077565b9050919050565b620000b68162000097565b8114620000c257600080fd5b50565b600081519050620000d681620000ab565b92915050565b600060208284031215620000f557620000f462000072565b5b60006200010584828501620000c5565b91505092915050565b608051610fef6200012a60003960006104e80152610fef6000f3fe608060405234801561001057600080fd5b506004361061004c5760003560e01c806301ffc9a714610051578063ba79486a14610081578063bc197c81146100b1578063f23a6e61146100e1575b600080fd5b61006b6004803603810190610066919061070f565b610111565b6040516100789190610757565b60405180910390f35b61009b6004803603810190610096919061086b565b61018b565b6040516100a89190610936565b60405180910390f35b6100cb60048036038101906100c69190610b55565b61041d565b6040516100d89190610c33565b60405180910390f35b6100fb60048036038101906100f69190610c4e565b610432565b6040516101089190610c33565b60405180910390f35b60007f4e2312e0000000000000000000000000000000000000000000000000000000007bffffffffffffffffffffffffffffffffffffffffffffffffffffffff1916827bffffffffffffffffffffffffffffffffffffffffffffffffffffffff19161480610184575061018382610447565b5b9050919050565b6000858873ffffffffffffffffffffffffffffffffffffffff1662fdd58e338a6040518363ffffffff1660e01b81526004016101c8929190610cf4565b602060405180830381865afa1580156101e5573d6000803e3d6000fd5b505050506040513d601f19601f820116820180604052508101906102099190610d32565b101561024a576040517f08c379a000000000000000000000000000000000000000000000000000000000815260040161024190610de2565b60405180910390fd5b8773ffffffffffffffffffffffffffffffffffffffff1663a22cb4653060016040518363ffffffff1660e01b8152600401610286929190610e02565b600060405180830381600087803b1580156102a057600080fd5b505af11580156102b4573d6000803e3d6000fd5b505050508773ffffffffffffffffffffffffffffffffffffffff1663f242432a33308a8a6040518563ffffffff1660e01b81526004016102f79493929190610e88565b600060405180830381600087803b15801561031157600080fd5b505af1158015610325573d6000803e3d6000fd5b50505050610335858585856104b1565b90508073ffffffffffffffffffffffffffffffffffffffff166340c10f1933886040518363ffffffff1660e01b8152600401610372929190610cf4565b600060405180830381600087803b15801561038c57600080fd5b505af11580156103a0573d6000803e3d6000fd5b505050508773ffffffffffffffffffffffffffffffffffffffff1663a22cb4653060006040518363ffffffff1660e01b81526004016103e0929190610e02565b600060405180830381600087803b1580156103fa57600080fd5b505af115801561040e573d6000803e3d6000fd5b50505050979650505050505050565b600063bc197c8160e01b905095945050505050565b600063f23a6e6160e01b905095945050505050565b60007f01ffc9a7000000000000000000000000000000000000000000000000000000007bffffffffffffffffffffffffffffffffffffffffffffffffffffffff1916827bffffffffffffffffffffffffffffffffffffffffffffffffffffffff1916149050919050565b600080858585856040516020016104cb9493929190610f10565b60405160208183030381529060405280519060200120905061050d7f0000000000000000000000000000000000000000000000000000000000000000826105f0565b91508173ffffffffffffffffffffffffffffffffffffffff16634cd88b76878787876040518563ffffffff1660e01b815260040161054e9493929190610f65565b600060405180830381600087803b15801561056857600080fd5b505af115801561057c573d6000803e3d6000fd5b505050508383604051610590929190610fa0565b604051809103902086866040516105a8929190610fa0565b60405180910390207f69a4c4092a76863419c9d3132c2172835232f1238feb48196305e23f6e5f5672846040516105df9190610936565b60405180910390a350949350505050565b6000763d602d80600a3d3981f3363d3d373d3d3d363d730000008360601b60e81c176000526e5af43d82803e903d91602b57fd5bf38360781b1760205281603760096000f59050600073ffffffffffffffffffffffffffffffffffffffff168173ffffffffffffffffffffffffffffffffffffffff160361069d576040517fc2f868f400000000000000000000000000000000000000000000000000000000815260040160405180910390fd5b92915050565b6000604051905090565b600080fd5b600080fd5b60007fffffffff0000000000000000000000000000000000000000000000000000000082169050919050565b6106ec816106b7565b81146106f757600080fd5b50565b600081359050610709816106e3565b92915050565b600060208284031215610725576107246106ad565b5b6000610733848285016106fa565b91505092915050565b60008115159050919050565b6107518161073c565b82525050565b600060208201905061076c6000830184610748565b92915050565b600073ffffffffffffffffffffffffffffffffffffffff82169050919050565b600061079d82610772565b9050919050565b6107ad81610792565b81146107b857600080fd5b50565b6000813590506107ca816107a4565b92915050565b6000819050919050565b6107e3816107d0565b81146107ee57600080fd5b50565b600081359050610800816107da565b92915050565b600080fd5b600080fd5b600080fd5b60008083601f84011261082b5761082a610806565b5b8235905067ffffffffffffffff8111156108485761084761080b565b5b60208301915083600182028301111561086457610863610810565b5b9250929050565b600080600080600080600060a0888a03121561088a576108896106ad565b5b60006108988a828b016107bb565b97505060206108a98a828b016107f1565b96505060406108ba8a828b016107f1565b955050606088013567ffffffffffffffff8111156108db576108da6106b2565b5b6108e78a828b01610815565b9450945050608088013567ffffffffffffffff81111561090a576109096106b2565b5b6109168a828b01610815565b925092505092959891949750929550565b61093081610792565b82525050565b600060208201905061094b6000830184610927565b92915050565b6000601f19601f8301169050919050565b7f4e487b7100000000000000000000000000000000000000000000000000000000600052604160045260246000fd5b61099a82610951565b810181811067ffffffffffffffff821117156109b9576109b8610962565b5b80604052505050565b60006109cc6106a3565b90506109d88282610991565b919050565b600067ffffffffffffffff8211156109f8576109f7610962565b5b602082029050602081019050919050565b6000610a1c610a17846109dd565b6109c2565b90508083825260208201905060208402830185811115610a3f57610a3e610810565b5b835b81811015610a685780610a5488826107f1565b845260208401935050602081019050610a41565b5050509392505050565b600082601f830112610a8757610a86610806565b5b8135610a97848260208601610a09565b91505092915050565b600080fd5b600067ffffffffffffffff821115610ac057610abf610962565b5b610ac982610951565b9050602081019050919050565b82818337600083830152505050565b6000610af8610af384610aa5565b6109c2565b905082815260208101848484011115610b1457610b13610aa0565b5b610b1f848285610ad6565b509392505050565b600082601f830112610b3c57610b3b610806565b5b8135610b4c848260208601610ae5565b91505092915050565b600080600080600060a08688031215610b7157610b706106ad565b5b6000610b7f888289016107bb565b9550506020610b90888289016107bb565b945050604086013567ffffffffffffffff811115610bb157610bb06106b2565b5b610bbd88828901610a72565b935050606086013567ffffffffffffffff811115610bde57610bdd6106b2565b5b610bea88828901610a72565b925050608086013567ffffffffffffffff811115610c0b57610c0a6106b2565b5b610c1788828901610b27565b9150509295509295909350565b610c2d816106b7565b82525050565b6000602082019050610c486000830184610c24565b92915050565b600080600080600060a08688031215610c6a57610c696106ad565b5b6000610c78888289016107bb565b9550506020610c89888289016107bb565b9450506040610c9a888289016107f1565b9350506060610cab888289016107f1565b925050608086013567ffffffffffffffff811115610ccc57610ccb6106b2565b5b610cd888828901610b27565b9150509295509295909350565b610cee816107d0565b82525050565b6000604082019050610d096000830185610927565b610d166020830184610ce5565b9392505050565b600081519050610d2c816107da565b92915050565b600060208284031215610d4857610d476106ad565b5b6000610d5684828501610d1d565b91505092915050565b600082825260208201905092915050565b7f496e73756666696369656e7420616d6f756e742c2066696c6c20757020616e6460008201527f2074727920616761696e00000000000000000000000000000000000000000000602082015250565b6000610dcc602a83610d5f565b9150610dd782610d70565b604082019050919050565b60006020820190508181036000830152610dfb81610dbf565b9050919050565b6000604082019050610e176000830185610927565b610e246020830184610748565b9392505050565b600082825260208201905092915050565b7f3078303000000000000000000000000000000000000000000000000000000000600082015250565b6000610e72600483610e2b565b9150610e7d82610e3c565b602082019050919050565b600060a082019050610e9d6000830187610927565b610eaa6020830186610927565b610eb76040830185610ce5565b610ec46060830184610ce5565b8181036080830152610ed581610e65565b905095945050505050565b600081905092915050565b6000610ef78385610ee0565b9350610f04838584610ad6565b82840190509392505050565b6000610f1d828688610eeb565b9150610f2a828486610eeb565b915081905095945050505050565b6000610f448385610d5f565b9350610f51838584610ad6565b610f5a83610951565b840190509392505050565b60006040820190508181036000830152610f80818688610f38565b90508181036020830152610f95818486610f38565b905095945050505050565b6000610fad828486610eeb565b9150819050939250505056fea264697066735822122096b59d354ecc2b756487a378ebf23e897e6cbd110e8e6fb9efe7f81d8d39b7fc64736f6c63430008180033",
  "linkReferences": {},
  "deployedLinkReferences": {}
}